0001MATT THOMAS              19821209ISPF-JCL        2023062800000000
0002ERIC HENDERSON           20070502HTML            2023062800000000
0003MEGAN KLINE              19980411JAVA            2023062800000000
0004DREW ZUCKER              19890705SQL             2023062800000000
0005KATIE BRADLEY            19900921LINUX           2023062800000000
0006KATHIE HAMPTON           19830412PYTHON          2023062800000000
0007BRIAN KNAPP              19980719COBOL           2023062800000000
0008MANASSES YODER           19840807C++             2023062800000000
0009ZHARAA KHALIL            19950425DB2             2023062800000000
